:020000040800F2
:1000000008040020D5000008FB000008FD000008DF
:1000100000000000000000000000000000000000E0
:10002000000000000000000000000000FF000008C9
:1000300000000000000000000101000803010008AA
:100040000501000805010008050100080501000878
:100050000501000805010008050100080501000868
:100060000000000005010008050100080501000866
:100070000501000805010008050100080000000056
:100080000501000805010008000000000501000846
:100090000501000805010008050100080501000828
:1000A0000501000805010008050100080501000818
:1000B0000501000805010008000000000501000816
:1000C0000348854600F040F800480047F512000854
:1000D000080400200C4880F308880C480168090EC9
:1000E0000B4A914205D10B480B4901600B480C4962
:1000F00001600C4880470C480047FEE7FEE7FEE73A
:10010000FEE7FEE7FEE70000080400200400000010
:100110001F00000018100240010000000000014014
:100120000000000035100008C100000830B504468A
:100130000020034600E05B1C934203D2E05CCD5CF0
:10014000401BF8D030BD0000064C0125064E05E0EE
:10015000E36807CC2B430C3C98471034B442F7D3E8
:10016000FFF7B2FF6C1500087C150008F0B594B0DD
:100170000F46A021415C3A784A4012923A70797851
:100180000090A03042784A400F927A70B978827815
:100190004A401192BA70F978C2784A401392FA70C4
:1001A000397902794A400D923A7141797A794A4017
:1001B0000B927A718179BA794A400E92BA71C179FB
:1001C000FA794A401092FA71017A3E7A4E403E72B4
:1001D000427A797A51407972827ABB7A53400A9393
:1001E000BB72C27AFB7A53400C93FB72027B3B7B5F
:1001F00053403B73427B7C7B54407C73857BBA7B52
:100200006A40BA73C07BFD7B454009950920019087
:1002100002971EE0029F3B7B3E7A38790D9038783A
:100220001290F87B0990F87A0C90F8791090F87891
:100230001390BA7BB8790E90B87A0A90B87811907A
:1002400078780F9078790B90797A7C7B0198401EB2
:100250000190D8B29E4D285C08903873F0B2285CAB
:10026000079038720D98C0B2285C069038711298C9
:10027000C0B22E5C3E70C9B2685C129078730B9865
:10028000C1B2685C0D9078720F98C1B2685C0B9037
:100290007871E1B26B5C7B700E98C1B2685C0F90B4
:1002A000B8731198C1B2685C1190B872D1B2695C30
:1002B0000591029881710A98C1B26C5C02988470B1
:1002C0001398C1B2695C0A910298C1730998C1B2CE
:1002D000695C0E910298C1720C98C1B26F5C029871
:1002E000C7711098C1B26D5C0298C5700198020187
:1002F0000099885C7040029E139030708818417895
:100300005940029B0C91597083786340029A937014
:10031000C6786E400299CE700179069A5140029AD1
:10032000117141790B9A5140029A51718179059A64
:100330005140029A9171C1797940D171017A079C3B
:1003400061401172417A0D9C61405172817A119C19
:1003500061409172C17A0E9C6140D172017B089C10
:1003600061401173417B129C61405173817B0F9CF2
:1003700061409173C07B0A994840D073019800286E
:1003800000D1A3E0002003900C9C0B93580041B2D5
:10039000CD091B273D4059B2C9093940414012914E
:1003A00048000D90454028461195194671400D466C
:1003B00065400C9463B2DB093B40620006925340F7
:1003C00007935D403346139A56B2F4093C405600F9
:1003D000744065400994454076B2F00938406200A7
:1003E00005925040109045401E460A935B0058B25B
:1003F000C2093A4070B2C0093840584008904000E5
:1004000042400F92530040B2C009384058400E900D
:100410004540119840000D9A53B2DA093A404240E3
:1004200004925540069840B2C0093840079C6300CA
:1004300058400D9046005BB2DB093B4073405D4085
:1004400010984200059846B2F6093E405640754065
:10045000029A139F0398155405467940129841401B
:1004600061400F9841400D9841400E984140049CD6
:10047000614059407140521951700C994F40089891
:1004800047400E9847400B997940099841400F9892
:1004900041400D984140614059407140D1700A99E6
:1004A0004F40129847401198474010984740674086
:1004B0005F40774097700C2D00D1ABE6D6799379E9
:1004C0005479107913902D1D03955EE714B0F0BD9B
:1004D0006A130008F0B5A2B00C4607460078097808
:1004E00041401F9121706078797841401C91617082
:1004F000A078B97841401991A170E078F97841402D
:100500002191E1702079397941401E9121717879EA
:100510006179414016916171B879A1794140159195
:10052000A171F879E17941401891E171387A267A20
:1005300046402672787A617A414017916172B87AA2
:10054000A17A41401391A172F87AE17A4140149165
:10055000E172397B207B48402073797B637B4B4081
:100560006373B97BA27B4A40A273F97BE57B4D4064
:100570000197A037009700212091C0B2E54F385C69
:100580001D902073F0B2385C1B9020721E98C0B290
:10059000385C1E9020711F98C0B2385C1F9020708C
:1005A0001C98C0B2385C06466073D8B2385C1A90AA
:1005B00060721798C0B2385C179060711698C0B21C
:1005C000385C1C9060701998C0B2385C1990A072A9
:1005D0001398C0B2385C1690A0701598C0B23B5CFE
:1005E000A373D0B2385C1390A0711499C9B27A5C2D
:1005F000E273E9B2795C1591E1701899C9B2795C3E
:100600001891E1722199C9B27F5CE7712099902914
:10061000149200D13CE10B9631461D9D69401E4667
:100620004E400C9605970F460991114669401546B4
:100630004A00724049B2C9091B2001405140129141
:10064000E173294679402A465A40079353004B40AC
:1006500051B2C909014059401191A1731A991B9ACD
:100660005140199E33464B400A930F460891189DFE
:10067000294651404A005A4049B2C90901405140F7
:100680001091E1722A4629467940724053004B404E
:1006900051B2C9090546014059400F91A1721799FD
:1006A0001E9A5140139F3B464B4021930E460691A4
:1006B0000598014651404A005A4049B2C9092940AB
:1006C00051400E91E171014671400246064638469E
:1006D0007A4053004B4051B2C909294059400D910D
:1006E000A171219F77402197179B584041005940A5
:1006F000794040B2C0092E462840484017906071AA
:100700001C9D1F994D40169F3B466B4004930395DB
:10071000159A104648404100594040B2C009304047
:1007200048401390E07010466840114615467940E5
:100730004A00424048B2C009304050400590A07085
:100740000B99079A4A405000484051B2C9093140BC
:1007500041400C98149A504041400C9102466173FC
:10076000099948001D9B584049B2C9093140029679
:10077000414051401D9121731A99199A4A405000E5
:10078000484051B2CB09334043400A981899484039
:1007900043401A9302466372089948001B9B5840D5
:1007A00049B2CB0933404340534023720699480075
:1007B0001E9A504049B2C9093140414021984140F8
:1007C00021711C983A4642405700474050B2C00938
:1007D00030407840049A6A4050406070039D6F003A
:1007E0001F9E77406DB2EE09029D2E407E40209FF5
:1007F00056402670019DED1922462C7C74401F94B2
:10080000147014466A7C42401C926270A87C059A5F
:1008100050401990A070E87C139A50402190E070ED
:10082000287D48401E902071687D17994840169099
:100830006071A87D0D9948401590A071E97D0E98D2
:1008400041401891E1712E7E5E402672687E1A99B1
:10085000484017906072A97E0F9841401391A17291
:10086000E97E109841401491E172287F1D9948401B
:1008700020736B7F0C994B406373AA7F11994A4098
:10088000A273ED7F12994D40E5731037209774E6FF
:10089000009A11781D461F9B5940217051781C9B6E
:1008A000594061709178169B5940A170D178159B81
:1008B0005940E17011791E9B594021715179179B64
:1008C00059406171917913984140A171D079784074
:1008D000E071107A1B9948402072507A1A9948406A
:1008E0006072907A19994840A072D07A189948405D
:1008F000E072107B1D9948402073507B70406073FC
:10090000907B6840A073D07B14994840E07322B07C
:10091000F0BDC0466A140008F0B582B006460878FB
:100920003070487870708878B070C878F070087946
:100930003071487970718879B071C879F071087A2E
:100940003072487A7072887AB072C87AF072087B16
:100950003073487B7073887BB073C87BF07304215D
:10096000002201962BE01C4BDF5D00978B081BA734
:10097000FB5C009F7B40184F385C00903C5DBF5D86
:100980000198865C5E402E746B787B406B74AF7808
:100990006740AF74EC7800984440EC74287970405C
:1009A000019E2875687958406875A8797840A875BF
:1009B000E8796040E8750832891CA02A0AD0B51889
:1009C000EC7BAE7B6F7B287B8B07CCD500943446C9
:1009D0000346D5E702B0F0BD6A1400088D01020499
:1009E00008102040801B3600B0B501469F4C2246BF
:1009F0000C3A1068102398431060BFF36F8F206883
:100A0000C0070BD12068C00600D597E020684007DA
:100A10007ED50320116819431160B0BD0B20050479
:100A20002068C0076CD02068C00740D02068C0078D
:100A30003FD02068C0073ED02068C0073DD0206866
:100A4000C0073CD02068C0073BD02068C0073AD020
:100A50002068C00739D02068C00738D02068C00798
:100A600037D02068C00736D02068C00735D020684E
:100A7000C00734D02068C00733D02068C00732D008
:100A80002068C00731D02068C00730D02068C00778
:100A90002FD02068C0072ED02068C0072DD0206836
:100AA000C0072CD0163D0520002DB9D1B2E76D1E30
:100AB00026E0AD1E24E0ED1E22E02D1F20E06D1F7C
:100AC0001EE0AD1F1CE0ED1F1AE0083D18E0093DD7
:100AD00016E00A3D14E00B3D12E00C3D10E00D3D28
:100AE0000EE00E3D0CE00F3D0AE0103D08E0113D28
:100AF00006E0123D04E0133D02E0143D00E0153D28
:100B00002068C00618D42068012D1CD0400766D488
:100B10006568022005436560A160616840250D435A
:100B200065602168C90713D12068C0065CD42068BD
:100B300040075BD5032090E0012D04D0022011680E
:100B400019431160B0BD0520116819431160B0BD93
:100B50000B2109042568ED0773D02568ED0747D000
:100B60002568ED0746D02568ED0745D02568ED07D7
:100B700044D02568ED0743D02568ED0742D02568AD
:100B8000ED0741D02568ED0740D02568ED073FD03F
:100B90002568ED073ED02568ED073DD02568ED07B7
:100BA0003CD02568ED073BD02568ED073AD0256895
:100BB000ED0739D02568ED0738D02568ED0737D027
:100BC0002568ED0736D02568ED0735D02568ED0797
:100BD00034D02568ED0733D01639BBD13CE0032073
:100BE000116819431160B0BD022036E0042034E0E2
:100BF000491E26E0891E24E0C91E22E0091F20E0CC
:100C0000491F1EE0891F1CE0C91F1AE0083918E0BF
:100C1000093916E00A3914E00B3912E00C3910E0FA
:100C20000D390EE00E390CE00F390AE0103908E0FA
:100C3000113906E0123904E0133902E0143900E0FA
:100C400015392568ED0605D42068400701D5032035
:100C500000E00420012900D1052061680225A94394
:100C60006160116819431160B0BDC0460C2002409C
:100C70000248016880220A43026070471020024047
:100C8000F0B581B000220092E14D2B460C3B1A6872
:100C90001024A2431A60BFF36F8F2A68D20708D1CD
:100CA0002A68D2064ED42A68520700D483E0032271
:100CB000A8E10B2216042A68D2076ED02A68D20750
:100CC00042D02A68D20741D02A68D20740D02A6889
:100CD000D2073FD02A68D2073ED02A68D2073DD03B
:100CE0002A68D2073CD02A68D2073BD02A68D207AC
:100CF0003AD02A68D20739D02A68D20738D02A6871
:100D0000D20737D02A68D20736D02A68D20735D022
:100D10002A68D20734D02A68D20733D02A68D2078B
:100D200032D02A68D20731D02A68D20730D02A6858
:100D3000D2072FD02A68D2072ED0163E0522002EC9
:100D4000B9D15FE102225DE1761E26E0B61E24E005
:100D5000F61E22E0361F20E0761F1EE0B61F1CE0C4
:100D6000F61F1AE0083E18E0093E16E00A3E14E0BD
:100D70000B3E12E00C3E10E00D3E0EE00E3E0CE08D
:100D80000F3E0AE0103E08E0113E06E0123E04E08D
:100D9000133E02E0143E00E0153E2A68D20604D459
:100DA0002A68012E05D105222CE1012E13D0022242
:100DB00028E152075AD46A68012632436A600180EA
:100DC0002A68D20709D12A68D20600D595E02A6898
:100DD00052077FD58CE0052214E10B2217042A6804
:100DE000D2076ED02A68D20742D02A68D20741D0F3
:100DF0002A68D20740D02A68D2073FD02A68D20793
:100E00003ED02A68D2073DD02A68D2073CD02A6853
:100E1000D2073BD02A68D2073AD02A68D20739D005
:100E20002A68D20738D02A68D20737D02A68D20772
:100E300036D02A68D20735D02A68D20734D02A683B
:100E4000D20733D02A68D20732D02A68D20731D0ED
:100E50002A68D20730D02A68D2072FD02A68D20752
:100E60002ED0163F0522002FB9D1C8E00322C9E0D9
:100E70007F1E26E0BF1E24E0FF1E22E03F1F20E071
:100E80007F1F1EE0BF1F1CE0FF1F1AE0083F18E095
:100E9000093F16E00A3F14E00B3F12E00C3F10E060
:100EA0000D3F0EE00E3F0CE00F3F0AE0103F08E060
:100EB000113F06E0123F04E0133F02E0143F00E060
:100EC000153F2A68D20615D42A68012F00D195E073
:100ED00052070DD4801C0090080C009908802868E7
:100EE000C0070CD12868C00607D4286840074DD534
:100EF000032284E0012F00D180E002227FE00B205A
:100F000000042968C9076CD02968C90740D029683E
:100F1000C9073FD02968C9073ED02968C9073DD015
:100F20002968C9073CD02968C9073BD02968C90787
:100F30003AD02968C90739D02968C90738D0296843
:100F4000C90737D02968C90736D02968C90735D0FD
:100F50002968C90734D02968C90733D02968C90767
:100F600032D02968C90731D02968C90730D029682B
:100F7000C9072FD02968C9072ED02968C9072DD0E5
:100F80002968C9072CD01638BBD137E0042236E0D7
:100F9000401E26E0801E24E0C01E22E0001F20E04C
:100FA000401F1EE0801F1CE0C01F1AE0083818E038
:100FB000093816E00A3814E00B3812E00C3810E05B
:100FC0000D380EE00E380CE00F380AE0103808E05B
:100FD000113806E0123804E0133802E0143800E05B
:100FE00015382968C90604D42968490703D503229E
:100FF00002E0022200E00422012800D105226868F4
:10100000B0436860186820431860104601B0F0BD16
:101010000C2002400448C168090603D50349016059
:10102000034901607047C046042002402301674520
:10103000AB89EFCD70B582B04048011F0B6801222B
:1010400013430B6003683E4C1C4004600B683D4C2E
:101050001C400C6093040C689C430C603F231B04F1
:1010600004689C430460836A0F24A3438362FF23C4
:101070005433C46A9C43C462036B934303630024E8
:101080004460019400940B6813430B600D680223C5
:101090001D400095019D6D1C0195009D002D04D102
:1010A00005252D03019EAE42F0D10D68AD0704D495
:1010B0000094009C012C3ED103E00092009C012C86
:1010C00039D1214C1125256004680460046804604E
:1010D0007F24E4030568A54305602124E403056833
:1010E0002543056014060D6825430D6052060C6803
:1010F000144208D10C68144205D10C68144202D184
:101100000C681442F3D00168032291430160016826
:101110001943016002680C210A40082A0BD00268BA
:101120000A40082A07D002680A40082A03D0026849
:101130000A40082AEED102B070BDC0460410024039
:101140000CB8FFF8FFFFF6FE0020024070B5BCB0FF
:1011500000252F9561482E9061482D9061482C9074
:1011600068462CA9FFF7D8FB5F4C2168606800290E
:1011700006D0002802D0A268002A06D1491C5DD002
:10118000401C5BD0A068401C58D0217838A8017062
:1011900056490A7830AD2A70627842704A786A708F
:1011A000A27882708A78AA70E278C270CA78EA70EF
:1011B000227902710A792A71627942714A796A71D7
:1011C000A27982718A79AA71E279C271CA79EA71C7
:1011D000227A02720A7A2A72627A42724A7A6A72AF
:1011E000A27A82728A7AAA72E27AC272CA7AEA729F
:1011F000227B02730A7B2A73627B42734A7B6A7387
:10120000A27B82738A7BAA73E27BC273C87BE8737A
:101210003A9836903B983790389834903998359072
:10122000684634AC2146FEF7A1FF0C222046294631
:10123000FEF77CFF414248413CB070BD2B4802782C
:1012400030A90A7042784A7082788A70C278CA706F
:1012500002790A7142794A7182798A71C279CA71B6
:10126000027A0A72427A4A72827A8A72C07AC872A2
:10127000339530983890319839903B9532983A9020
:10128000684638A9FFF726F9FFF7C4FE2046FFF7A6
:10129000ABFB04281FD1241F38AD154E2878697880
:1012A00009020818A978EA781202511809040918E5
:1012B000241D2046FFF7E4FC04280DD12D1DB44267
:1012C000ECD9FFF7D5FCBFF34F8F1B481B490160DA
:1012D000BFF34F8FFEE7FEE7FEE7C046C9CC521CC6
:1012E000C1C4816AACF58EDD00FC0108ACF7FF1FBC
:1012F000FAFF010880B5FFF729FF002813D0104836
:101300000168104A0A40012149078A4209D141680F
:101310000D4A11605160006880F3088872B6506809
:101320008047002080BDBFF34F8F03480349016011
:10133000BFF34F8FFEE7C0460CED00E00400FA0556
:10134000002000080000FE2F0000002002E008C876
:10135000121F08C1002AFAD170477047002001E02F
:1013600001C1121F002AFBD1704752096AD53036DD
:10137000A538BF40A39E81F3D7FB7CE339829B2F26
:10138000FF87348E4344C4DEE9CB547B9432A6C23B
:10139000233DEE4C950B42FAC34E082EA16628D988
:1013A00024B2765BA2496D8BD12572F8F66486680B
:1013B0009816D4A45CCC5D65B6926C704850FDED77
:1013C000B9DA5E154657A78D9D8490D8AB008CBCCA
:1013D000D30AF7E45805B8B34506D02C1E8FCA3F90
:1013E0000F02C1AFBD0301138A6B3A9111414F67E0
:1013F000DCEA97F2CFCEF0B4E67396AC7422E7AD98
:101400003585E2F937E81C75DF6E47F11A711D2941
:10141000C5896FB7620EAA18BE1BFC563E4BC6D2DA
:1014200079209ADBC0FE78CD5AF41FDDA8338807F7
:10143000C731B11210592780EC5F60517FA919B5EF
:101440004A0D2DE57A9F93C99CEFA0E03B4DAE2A53
:10145000F5B0C8EBBB3C83539961172B047EBA7778
:10146000D626E169146355210C7D637C777BF26B92
:101470006FC53001672BFED7AB76CA82C97DFA599A
:1014800047F0ADD4A2AF9CA472C0B7FD9326363FFF
:10149000F7CC34A5E5F171D8311504C723C31896EC
:1014A000059A071280E2EB27B27509832C1A1B6E8E
:1014B0005AA0523BD6B329E32F8453D100ED20FC30
:1014C000B15B6ACBBE394A4C58CFD0EFAAFB434D33
:1014D000338545F9027F503C9FA851A3408F929DD0
:1014E00038F5BCB6DA2110FFF3D2CD0C13EC5F97C0
:1014F0004417C4A77E3D645D197360814FDC222AC6
:10150000908846EEB814DE5E0BDBE0323A0A4906FC
:10151000245CC2D3AC629195E479E7C8376D8DD570
:101520004EA96C56F4EA657AAE08BA78252E1CA648
:10153000B4C6E8DD741F4BBD8B8A703EB5664803A8
:10154000F60E613557B986C11D9EE1F8981169D92B
:101550008E949B1E87E9CE5528DF8CA1890DBFE6AE
:10156000426841992D0FB054BB1600007C1500084D
:0C15700000000020080400005C130008CC
:04000005080000C12E
:00000001FF
